{
  "contractName": "CryptoRose",
  "abi": [
    {
      "constant": true,
      "inputs": [
        {
          "name": "",
          "type": "uint256"
        }
      ],
      "name": "RosesGold",
      "outputs": [
        {
          "name": "idGold",
          "type": "uint256"
        },
        {
          "name": "loverGold",
          "type": "address"
        },
        {
          "name": "nameGold",
          "type": "string"
        },
        {
          "name": "descriptionGold",
          "type": "string"
        },
        {
          "name": "fromGold",
          "type": "string"
        }
      ],
      "payable": false,
      "stateMutability": "view",
      "type": "function"
    },
    {
      "constant": true,
      "inputs": [],
      "name": "getNumberOfRosesPurple",
      "outputs": [
        {
          "name": "",
          "type": "uint256"
        }
      ],
      "payable": false,
      "stateMutability": "view",
      "type": "function"
    },
    {
      "constant": false,
      "inputs": [],
      "name": "kill",
      "outputs": [],
      "payable": false,
      "stateMutability": "nonpayable",
      "type": "function"
    },
    {
      "constant": true,
      "inputs": [
        {
          "name": "",
          "type": "uint256"
        }
      ],
      "name": "Roses",
      "outputs": [
        {
          "name": "id",
          "type": "uint256"
        },
        {
          "name": "lover",
          "type": "address"
        },
        {
          "name": "name",
          "type": "string"
        },
        {
          "name": "description",
          "type": "string"
        },
        {
          "name": "from",
          "type": "string"
        }
      ],
      "payable": false,
      "stateMutability": "view",
      "type": "function"
    },
    {
      "constant": false,
      "inputs": [
        {
          "name": "_name",
          "type": "string"
        },
        {
          "name": "_description",
          "type": "string"
        },
        {
          "name": "_from",
          "type": "string"
        }
      ],
      "name": "dedicateRose",
      "outputs": [],
      "payable": true,
      "stateMutability": "payable",
      "type": "function"
    },
    {
      "constant": true,
      "inputs": [],
      "name": "getRosesDedicated",
      "outputs": [
        {
          "name": "",
          "type": "uint256[]"
        }
      ],
      "payable": false,
      "stateMutability": "view",
      "type": "function"
    },
    {
      "constant": true,
      "inputs": [],
      "name": "getRosesPurpleDedicated",
      "outputs": [
        {
          "name": "",
          "type": "uint256[]"
        }
      ],
      "payable": false,
      "stateMutability": "view",
      "type": "function"
    },
    {
      "constant": true,
      "inputs": [],
      "name": "getRosesGoldDedicated",
      "outputs": [
        {
          "name": "",
          "type": "uint256[]"
        }
      ],
      "payable": false,
      "stateMutability": "view",
      "type": "function"
    },
    {
      "constant": true,
      "inputs": [],
      "name": "getNumberOfRoses",
      "outputs": [
        {
          "name": "",
          "type": "uint256"
        }
      ],
      "payable": false,
      "stateMutability": "view",
      "type": "function"
    },
    {
      "constant": false,
      "inputs": [
        {
          "name": "_namePurple",
          "type": "string"
        },
        {
          "name": "_descriptionPurple",
          "type": "string"
        },
        {
          "name": "_fromPurple",
          "type": "string"
        }
      ],
      "name": "dedicateRosePurple",
      "outputs": [],
      "payable": true,
      "stateMutability": "payable",
      "type": "function"
    },
    {
      "constant": true,
      "inputs": [
        {
          "name": "",
          "type": "uint256"
        }
      ],
      "name": "RosesPurple",
      "outputs": [
        {
          "name": "idPurple",
          "type": "uint256"
        },
        {
          "name": "loverPurple",
          "type": "address"
        },
        {
          "name": "namePurple",
          "type": "string"
        },
        {
          "name": "descriptionPurple",
          "type": "string"
        },
        {
          "name": "fromPurple",
          "type": "string"
        }
      ],
      "payable": false,
      "stateMutability": "view",
      "type": "function"
    },
    {
      "constant": false,
      "inputs": [
        {
          "name": "_nameGold",
          "type": "string"
        },
        {
          "name": "_descriptionGold",
          "type": "string"
        },
        {
          "name": "_fromGold",
          "type": "string"
        }
      ],
      "name": "dedicateRoseGold",
      "outputs": [],
      "payable": true,
      "stateMutability": "payable",
      "type": "function"
    },
    {
      "constant": true,
      "inputs": [],
      "name": "getNumberOfRosesGold",
      "outputs": [
        {
          "name": "",
          "type": "uint256"
        }
      ],
      "payable": false,
      "stateMutability": "view",
      "type": "function"
    },
    {
      "anonymous": false,
      "inputs": [
        {
          "indexed": true,
          "name": "_id",
          "type": "uint256"
        },
        {
          "indexed": true,
          "name": "_lover",
          "type": "address"
        },
        {
          "indexed": false,
          "name": "_name",
          "type": "string"
        }
      ],
      "name": "dedicateRoseEvent",
      "type": "event"
    },
    {
      "anonymous": false,
      "inputs": [
        {
          "indexed": true,
          "name": "_idGold",
          "type": "uint256"
        },
        {
          "indexed": true,
          "name": "_loverGold",
          "type": "address"
        },
        {
          "indexed": false,
          "name": "_nameGold",
          "type": "string"
        }
      ],
      "name": "dedicateRoseGoldEvent",
      "type": "event"
    },
    {
      "anonymous": false,
      "inputs": [
        {
          "indexed": true,
          "name": "_idPurple",
          "type": "uint256"
        },
        {
          "indexed": true,
          "name": "_loverPurple",
          "type": "address"
        },
        {
          "indexed": false,
          "name": "_namePurple",
          "type": "string"
        }
      ],
      "name": "dedicateRosePurpleEvent",
      "type": "event"
    }
  ],
  "bytecode": "0x6060604052336000806101000a81548173ffffffffffffffffffffffffffffffffffffffff021916908373ffffffffffffffffffffffffffffffffffffffff160217905550611849806100536000396000f3006060604052600436106100c5576000357c0100000000000000000000000000000000000000000000000000000000900463ffffffff16806313c99516146100ca578063266b0324146102cf57806341c0e1b5146102f8578063777087be1461030d5780637862b96114610512578063859c62b4146105ea5780638994924d1461065457806398b5c8cb146106be578063b7e206ee14610728578063c8c40ee314610751578063d0e7105214610829578063dd1a9afb14610a2e578063f39b8a2314610b06575b600080fd5b34156100d557600080fd5b6100eb6004808035906020019091905050610b2f565b604051808681526020018573ffffffffffffffffffffffffffffffffffffffff1673ffffffffffffffffffffffffffffffffffffffff1681526020018060200180602001806020018481038452878181546001816001161561010002031660029004815260200191508054600181600116156101000203166002900480156101b45780601f10610189576101008083540402835291602001916101b4565b820191906000526020600020905b81548152906001019060200180831161019757829003601f168201915b50508481038352868181546001816001161561010002031660029004815260200191508054600181600116156101000203166002900480156102375780601f1061020c57610100808354040283529160200191610237565b820191906000526020600020905b81548152906001019060200180831161021a57829003601f168201915b50508481038252858181546001816001161561010002031660029004815260200191508054600181600116156101000203166002900480156102ba5780601f1061028f576101008083540402835291602001916102ba565b820191906000526020600020905b81548152906001019060200180831161029d57829003601f168201915b50509850505050505050505060405180910390f35b34156102da57600080fd5b6102e2610b82565b6040518082815260200191505060405180910390f35b341561030357600080fd5b61030b610b8c565b005b341561031857600080fd5b61032e6004808035906020019091905050610c21565b604051808681526020018573ffffffffffffffffffffffffffffffffffffffff1673ffffffffffffffffffffffffffffffffffffffff1681526020018060200180602001806020018481038452878181546001816001161561010002031660029004815260200191508054600181600116156101000203166002900480156103f75780601f106103cc576101008083540402835291602001916103f7565b820191906000526020600020905b8154815290600101906020018083116103da57829003601f168201915b505084810383528681815460018160011615610100020316600290048152602001915080546001816001161561010002031660029004801561047a5780601f1061044f5761010080835404028352916020019161047a565b820191906000526020600020905b81548152906001019060200180831161045d57829003601f168201915b50508481038252858181546001816001161561010002031660029004815260200191508054600181600116156101000203166002900480156104fd5780601f106104d2576101008083540402835291602001916104fd565b820191906000526020600020905b8154815290600101906020018083116104e057829003601f168201915b50509850505050505050505060405180910390f35b6105e8600480803590602001908201803590602001908080601f0160208091040260200160405190810160405280939291908181526020018383808284378201915050505050509190803590602001908201803590602001908080601f0160208091040260200160405190810160405280939291908181526020018383808284378201915050505050509190803590602001908201803590602001908080601f01602080910402602001604051908101604052809392919081815260200183838082843782019150505050505091905050610c74565b005b34156105f557600080fd5b6105fd610ea2565b6040518080602001828103825283818151815260200191508051906020019060200280838360005b83811015610640578082015181840152602081019050610625565b505050509050019250505060405180910390f35b341561065f57600080fd5b610667610fea565b6040518080602001828103825283818151815260200191508051906020019060200280838360005b838110156106aa57808201518184015260208101905061068f565b505050509050019250505060405180910390f35b34156106c957600080fd5b6106d1611132565b6040518080602001828103825283818151815260200191508051906020019060200280838360005b838110156107145780820151818401526020810190506106f9565b505050509050019250505060405180910390f35b341561073357600080fd5b61073b61127a565b6040518082815260200191505060405180910390f35b610827600480803590602001908201803590602001908080601f0160208091040260200160405190810160405280939291908181526020018383808284378201915050505050509190803590602001908201803590602001908080601f0160208091040260200160405190810160405280939291908181526020018383808284378201915050505050509190803590602001908201803590602001908080601f01602080910402602001604051908101604052809392919081815260200183838082843782019150505050505091905050611284565b005b341561083457600080fd5b61084a60048080359060200190919050506114c3565b604051808681526020018573ffffffffffffffffffffffffffffffffffffffff1673ffffffffffffffffffffffffffffffffffffffff1681526020018060200180602001806020018481038452878181546001816001161561010002031660029004815260200191508054600181600116156101000203166002900480156109135780601f106108e857610100808354040283529160200191610913565b820191906000526020600020905b8154815290600101906020018083116108f657829003601f168201915b50508481038352868181546001816001161561010002031660029004815260200191508054600181600116156101000203166002900480156109965780601f1061096b57610100808354040283529160200191610996565b820191906000526020600020905b81548152906001019060200180831161097957829003601f168201915b5050848103825285818154600181600116156101000203166002900481526020019150805460018160011615610100020316600290048015610a195780601f106109ee57610100808354040283529160200191610a19565b820191906000526020600020905b8154815290600101906020018083116109fc57829003601f168201915b50509850505050505050505060405180910390f35b610b04600480803590602001908201803590602001908080601f0160208091040260200160405190810160405280939291908181526020018383808284378201915050505050509190803590602001908201803590602001908080601f0160208091040260200160405190810160405280939291908181526020018383808284378201915050505050509190803590602001908201803590602001908080601f01602080910402602001604051908101604052809392919081815260200183838082843782019150505050505091905050611516565b005b3415610b1157600080fd5b610b1961175a565b6040518082815260200191505060405180910390f35b60036020528060005260406000206000915090508060000154908060010160009054906101000a900473ffffffffffffffffffffffffffffffffffffffff16908060020190806003019080600401905085565b6000600654905090565b6000809054906101000a900473ffffffffffffffffffffffffffffffffffffffff1673ffffffffffffffffffffffffffffffffffffffff163373ffffffffffffffffffffffffffffffffffffffff16141515610be757600080fd5b6000809054906101000a900473ffffffffffffffffffffffffffffffffffffffff1673ffffffffffffffffffffffffffffffffffffffff16ff5b60016020528060005260406000206000915090508060000154908060010160009054906101000a900473ffffffffffffffffffffffffffffffffffffffff16908060020190806003019080600401905085565b60026000815480929190600101919050555060a06040519081016040528060025481526020013373ffffffffffffffffffffffffffffffffffffffff168152602001848152602001838152602001828152506001600060025481526020019081526020016000206000820151816000015560208201518160010160006101000a81548173ffffffffffffffffffffffffffffffffffffffff021916908373ffffffffffffffffffffffffffffffffffffffff1602179055506040820151816002019080519060200190610d48929190611764565b506060820151816003019080519060200190610d65929190611764565b506080820151816004019080519060200190610d82929190611764565b509050506000809054906101000a900473ffffffffffffffffffffffffffffffffffffffff1673ffffffffffffffffffffffffffffffffffffffff166108fc349081150290604051600060405180830381858888f193505050501515610de757600080fd5b3373ffffffffffffffffffffffffffffffffffffffff166002547f81670dff0716b6dd4d3936e6f32c1a942fdd3554b96db7982f81860deedb8188856040518080602001828103825283818151815260200191508051906020019080838360005b83811015610e63578082015181840152602081019050610e48565b50505050905090810190601f168015610e905780820380516001836020036101000a031916815260200191505b509250505060405180910390a3505050565b610eaa6117e4565b610eb26117e4565b600080610ebd6117e4565b6000806002541415610ef0576000604051805910610ed85750595b90808252806020026020018201604052509550610fe2565b600254604051805910610f005750595b9080825280602002602001820160405250945060009350600192505b60025483111515610f6f5760016000848152602001908152602001600020600001548585815181101515610f4c57fe5b906020019060200201818152505083806001019450508280600101935050610f1c565b83604051805910610f7d5750595b90808252806020026020018201604052509150600090505b83811015610fde578481815181101515610fab57fe5b906020019060200201518282815181101515610fc357fe5b90602001906020020181815250508080600101915050610f95565b8195505b505050505090565b610ff26117e4565b610ffa6117e4565b6000806110056117e4565b60008060065414156110385760006040518059106110205750595b9080825280602002602001820160405250955061112a565b6006546040518059106110485750595b9080825280602002602001820160405250945060009350600192505b600654831115156110b7576005600084815260200190815260200160002060000154858581518110151561109457fe5b906020019060200201818152505083806001019450508280600101935050611064565b836040518059106110c55750595b90808252806020026020018201604052509150600090505b838110156111265784818151811015156110f357fe5b90602001906020020151828281518110151561110b57fe5b906020019060200201818152505080806001019150506110dd565b8195505b505050505090565b61113a6117e4565b6111426117e4565b60008061114d6117e4565b60008060045414156111805760006040518059106111685750595b90808252806020026020018201604052509550611272565b6004546040518059106111905750595b9080825280602002602001820160405250945060009350600192505b600454831115156111ff57600360008481526020019081526020016000206000015485858151811015156111dc57fe5b9060200190602002018181525050838060010194505082806001019350506111ac565b8360405180591061120d5750595b90808252806020026020018201604052509150600090505b8381101561126e57848181518110151561123b57fe5b90602001906020020151828281518110151561125357fe5b90602001906020020181815250508080600101915050611225565b8195505b505050505090565b6000600254905090565b60066000815480929190600101919050555060026006541015156112a757600080fd5b60a06040519081016040528060065481526020013373ffffffffffffffffffffffffffffffffffffffff168152602001848152602001838152602001828152506005600060065481526020019081526020016000206000820151816000015560208201518160010160006101000a81548173ffffffffffffffffffffffffffffffffffffffff021916908373ffffffffffffffffffffffffffffffffffffffff1602179055506040820151816002019080519060200190611369929190611764565b506060820151816003019080519060200190611386929190611764565b5060808201518160040190805190602001906113a3929190611764565b509050506000809054906101000a900473ffffffffffffffffffffffffffffffffffffffff1673ffffffffffffffffffffffffffffffffffffffff166108fc349081150290604051600060405180830381858888f19350505050151561140857600080fd5b3373ffffffffffffffffffffffffffffffffffffffff166006547f8f72d36167e3eceef7227a62b1e2683569b8af307c2c36f22e5ce3708677d646856040518080602001828103825283818151815260200191508051906020019080838360005b83811015611484578082015181840152602081019050611469565b50505050905090810190601f1680156114b15780820380516001836020036101000a031916815260200191505b509250505060405180910390a3505050565b60056020528060005260406000206000915090508060000154908060010160009054906101000a900473ffffffffffffffffffffffffffffffffffffffff16908060020190806003019080600401905085565b600460008154809291906001019190505550677ce66c50e28400003411151561153e57600080fd5b60a06040519081016040528060045481526020013373ffffffffffffffffffffffffffffffffffffffff168152602001848152602001838152602001828152506003600060045481526020019081526020016000206000820151816000015560208201518160010160006101000a81548173ffffffffffffffffffffffffffffffffffffffff021916908373ffffffffffffffffffffffffffffffffffffffff1602179055506040820151816002019080519060200190611600929190611764565b50606082015181600301908051906020019061161d929190611764565b50608082015181600401908051906020019061163a929190611764565b509050506000809054906101000a900473ffffffffffffffffffffffffffffffffffffffff1673ffffffffffffffffffffffffffffffffffffffff166108fc349081150290604051600060405180830381858888f19350505050151561169f57600080fd5b3373ffffffffffffffffffffffffffffffffffffffff166004547fd9945826504ea63c2463fa9425f26ac6c039d675475ce98e89b4b852f6e039d3856040518080602001828103825283818151815260200191508051906020019080838360005b8381101561171b578082015181840152602081019050611700565b50505050905090810190601f1680156117485780820380516001836020036101000a031916815260200191505b509250505060405180910390a3505050565b6000600454905090565b828054600181600116156101000203166002900490600052602060002090601f016020900481019282601f106117a557805160ff19168380011785556117d3565b828001600101855582156117d3579182015b828111156117d25782518255916020019190600101906117b7565b5b5090506117e091906117f8565b5090565b602060405190810160405280600081525090565b61181a91905b808211156118165760008160009055506001016117fe565b5090565b905600a165627a7a72305820617e847415995381cff91b07ee97a3634d06e4e1bfddbeb4d67ca1d747441e290029",
  "source": "pragma solidity ^0.4.11;\n\nimport \"./Owned.sol\";\n\n\ncontract CryptoRose is Owned {\n\n\n//RED ROSE\n\n  // Custom types\n  struct Rose {\n    uint id;\n    address lover;\n    string name;\n    string description;\n    string from;\n  }\n\n  // State variables\n  mapping(uint => Rose) public Roses;\n  uint RoseCounter;\n\n\n  // Events\n  event dedicateRoseEvent (\n    uint indexed _id,\n    address indexed _lover,\n    string _name\n  );\n\n\n\n  // dedicate a Rose\n  function dedicateRose(string _name, string _description, string _from) payable public {\n    // a new Rose\n    RoseCounter++;\n\n    // store this Rose\n    Roses[RoseCounter] = Rose(\n         RoseCounter,\n         msg.sender,\n         _name,\n         _description,\n         _from\n    );\n\nowner.transfer(msg.value);\n    // trigger the event\n    dedicateRoseEvent(RoseCounter, msg.sender, _name);\n  }\n\n\n\n  // fetch the number of Roses in the contract\n  function getNumberOfRoses() public constant returns (uint) {\n    return RoseCounter;\n  }\n\n\n  // fetch and returns all Rose IDs that have been dedicated\n  function getRosesDedicated() public constant returns (uint[]) {\n    // we check whether there is at least one Rose\n    if(RoseCounter == 0) {\n      return new uint[](0);\n    }\n\n    // prepare intermediary array\n    uint[] memory RoseIds = new uint[](RoseCounter);\n\n    uint numberOfRosesDedicated = 0;\n    // iterate over Roses\n    for (uint i = 1; i <= RoseCounter; i++) {\n      // keep only the ID of Roses not sold yet\n        RoseIds[numberOfRosesDedicated] = Roses[i].id;\n        numberOfRosesDedicated++;\n\n    }\n\n    // copy the RoseIds array into the smaller Dedicated array\n    uint[] memory Dedicated = new uint[](numberOfRosesDedicated);\n    for (uint j = 0; j < numberOfRosesDedicated; j++) {\n      Dedicated[j] = RoseIds[j];\n    }\n    return (Dedicated);\n  }\n\n  //Gold ROSE\n\n    // Custom types\n    struct RoseGold {\n      uint idGold;\n      address loverGold;\n      string nameGold;\n      string descriptionGold;\n      string fromGold;\n    }\n\n    // State variables\n    mapping(uint => RoseGold) public RosesGold;\n    uint RoseGoldCounter;\n\n\n    // Events\n    event dedicateRoseGoldEvent (\n      uint indexed _idGold,\n      address indexed _loverGold,\n      string _nameGold\n    );\n\n\n\n    // dedicate a Rose\n    function dedicateRoseGold(string _nameGold, string _descriptionGold, string _fromGold) payable public {\n      // a new Rose\n      RoseGoldCounter++;\n      require ( msg.value > 9000000000000000000);\n\n      // store this Rose\n      RosesGold[RoseGoldCounter] = RoseGold(\n           RoseGoldCounter,\n           msg.sender,\n           _nameGold,\n           _descriptionGold,\n           _fromGold\n      );\n\nowner.transfer(msg.value);\n      // trigger the event\n      dedicateRoseGoldEvent(RoseGoldCounter, msg.sender, _nameGold);\n    }\n\n\n\n    // fetch the number of Roses in the contract\n    function getNumberOfRosesGold() public constant returns (uint) {\n      return RoseGoldCounter;\n    }\n\n\n    // fetch and returns all Rose IDs that have been dedicated\n    function getRosesGoldDedicated() public constant returns (uint[]) {\n      // we check whether there is at least one Rose\n      if(RoseGoldCounter == 0) {\n        return new uint[](0);\n      }\n\n      // prepare intermediary array\n      uint[] memory RoseGoldIds = new uint[](RoseGoldCounter);\n\n      uint numberOfRosesGoldDedicated = 0;\n      // iterate over Roses\n      for (uint i = 1; i <= RoseGoldCounter; i++) {\n        // keep only the ID of Roses not sold yet\n          RoseGoldIds[numberOfRosesGoldDedicated] = RosesGold[i].idGold;\n          numberOfRosesGoldDedicated++;\n\n      }\n\n      // copy the RoseIds array into the smaller Dedicated array\n      uint[] memory DedicatedGold = new uint[](numberOfRosesGoldDedicated);\n      for (uint j = 0; j < numberOfRosesGoldDedicated; j++) {\n        DedicatedGold[j] = RoseGoldIds[j];\n      }\n      return (DedicatedGold);\n    }\n\n\n    //Purple ROSE\n\n  // Custom types\n  struct RosePurple {\n    uint idPurple;\n    address loverPurple;\n    string namePurple;\n    string descriptionPurple;\n    string fromPurple;\n  }\n\n  // State variables\n  mapping(uint => RosePurple) public RosesPurple;\n  uint RosePurpleCounter;\n\n\n  // Events\n  event dedicateRosePurpleEvent (\n    uint indexed _idPurple,\n    address indexed _loverPurple,\n    string _namePurple\n  );\n\n\n\n  // dedicate a Rose\n  function dedicateRosePurple(string _namePurple, string _descriptionPurple, string _fromPurple) payable public {\n    // a new Rose\n    RosePurpleCounter++;\n    require ( RosePurpleCounter < 2);\n    //require ( msg.value > 99);\n\n    // store this Rose\n    RosesPurple[RosePurpleCounter] = RosePurple(\n         RosePurpleCounter,\n         msg.sender,\n         _namePurple,\n         _descriptionPurple,\n         _fromPurple\n    );\n\n    // trigger the event\n    owner.transfer(msg.value);\n    dedicateRosePurpleEvent(RosePurpleCounter, msg.sender, _namePurple);\n  }\n\n\n\n  // fetch the number of Roses in the contract\n  function getNumberOfRosesPurple() public constant returns (uint) {\n    return RosePurpleCounter;\n  }\n\n\n  // fetch and returns all Rose IDs that have been dedicated\n  function getRosesPurpleDedicated() public constant returns (uint[]) {\n    // we check whether there is at least one Rose\n    if(RosePurpleCounter == 0) {\n      return new uint[](0);\n    }\n\n    // prepare intermediary array\n    uint[] memory RosePurpleIds = new uint[](RosePurpleCounter);\n\n    uint numberOfRosesPurpleDedicated = 0;\n    // iterate over Roses\n    for (uint i = 1; i <= RosePurpleCounter; i++) {\n      // keep only the ID of Roses not sold yet\n        RosePurpleIds[numberOfRosesPurpleDedicated] = RosesPurple[i].idPurple;\n        numberOfRosesPurpleDedicated++;\n\n    }\n\n    // copy the RoseIds array into the smaller Dedicated array\n    uint[] memory DedicatedPurple = new uint[](numberOfRosesPurpleDedicated);\n    for (uint j = 0; j < numberOfRosesPurpleDedicated; j++) {\n      DedicatedPurple[j] = RosePurpleIds[j];\n    }\n    return (DedicatedPurple);\n  }\n\n\n\n\n  // kill the smart contract\n  function kill() onlyOwner {\n    selfdestruct(owner);\n  }\n\n//Random\n\n\n\n\n\n}\n",
  "sourcePath": "/Users/MJ/CryptoRose/contracts/CryptoRose.sol",
  "compiler": {
    "name": "solc",
    "version": "0.4.18+commit.9cf6e910.Emscripten.clang"
  },
  "schemaVersion": "1.0.1",
  "updatedAt": "2018-01-22T10:18:25.010Z"
}